{
  "transactions": [
    {
      "hash": "0x553ccad05723c4cd6b9c712fd00c7c5d19ac527c9c5d8b7c9e9d5e718ff0e7ed",
      "transactionType": "CALL",
      "contractName": null,
      "contractAddress": "0xe03a1074c86cfedd5c142c4f04f1a1536e203543",
      "function": "initialize((address,address,uint24,int24,address),uint160)",
      "arguments": [
        "(0x6550c8d40f06c8A5B003A0622538980Fc4AF7492, 0xadeFC3Ca8AB9974E4F3e3B5e09e94305988323Dd, 0, 60, 0xCA2A914BA5fdFaaD2989CC21A93F172701078080)",
        "79228162514264337593543950336"
      ],
      "transaction": {
        "from": "0xea78d8595ab0127c283297af373a8f5ce7288bb0",
        "to": "0xe03a1074c86cfedd5c142c4f04f1a1536e203543",
        "gas": "0x12793",
        "value": "0x0",
        "input": "0x6276cbbe0000000000000000000000006550c8d40f06c8a5b003a0622538980fc4af7492000000000000000000000000adefc3ca8ab9974e4f3e3b5e09e94305988323dd0000000000000000000000000000000000000000000000000000000000000000000000000000000000000000000000000000000000000000000000000000003c000000000000000000000000ca2a914ba5fdfaad2989cc21a93f1727010780800000000000000000000000000000000000000001000000000000000000000000",
        "nonce": "0x113",
        "chainId": "0xaa36a7"
      },
      "additionalContracts": [],
      "isFixedGasLimit": false
    }
  ],
  "receipts": [
    {
      "status": "0x1",
      "cumulativeGasUsed": "0xa75d56",
      "logs": [
        {
          "address": "0xe03a1074c86cfedd5c142c4f04f1a1536e203543",
          "topics": [
            "0xdd466e674ea557f56295e2d0218a125ea4b4f0f6f3307b95f85e6110838d6438",
            "0x83916250123c93643981abb83351d2673a27e01a65644f3e01d71240c90ca44b",
            "0x0000000000000000000000006550c8d40f06c8a5b003a0622538980fc4af7492",
            "0x000000000000000000000000adefc3ca8ab9974e4f3e3b5e09e94305988323dd"
          ],
          "data": "0x0000000000000000000000000000000000000000000000000000000000000000000000000000000000000000000000000000000000000000000000000000003c000000000000000000000000ca2a914ba5fdfaad2989cc21a93f17270107808000000000000000000000000000000000000000010000000000000000000000000000000000000000000000000000000000000000000000000000000000000000",
          "blockHash": "0xa391eb7324076b96e4d11cfaf6afe38efb44dc61498ceac337f50b69dd706362",
          "blockNumber": "0x8963b4",
          "blockTimestamp": "0x68a1cd10",
          "transactionHash": "0x553ccad05723c4cd6b9c712fd00c7c5d19ac527c9c5d8b7c9e9d5e718ff0e7ed",
          "transactionIndex": "0x4c",
          "logIndex": "0x98",
          "removed": false
        }
      ],
      "logsBloom": "0x00000000000000000000000000000000000000000000000000000000000000004000000002000000000000000000000000000104000000000000000000000000000000000000000000000000000000000000000000000000040000000000000000000000000000000000000000000000000000000000500000000000000000000000000000000008000000000000000000000001080000000000000000200000000000000000000000000000008000000000000000000000000000000000000000000000000000000000000000000000000000000000000000002000000000001000000000000000000000000000000000000000000000000000000000000040",
      "type": "0x0",
      "transactionHash": "0x553ccad05723c4cd6b9c712fd00c7c5d19ac527c9c5d8b7c9e9d5e718ff0e7ed",
      "transactionIndex": "0x4c",
      "blockHash": "0xa391eb7324076b96e4d11cfaf6afe38efb44dc61498ceac337f50b69dd706362",
      "blockNumber": "0x8963b4",
      "gasUsed": "0xca1b",
      "effectiveGasPrice": "0x90e05d3",
      "from": "0xea78d8595ab0127c283297af373a8f5ce7288bb0",
      "to": "0xe03a1074c86cfedd5c142c4f04f1a1536e203543",
      "contractAddress": null
    }
  ],
  "libraries": [],
  "pending": [],
  "returns": {},
  "timestamp": 1755434258,
  "chain": 11155111,
  "commit": "ac413d8"
}