{
  "transactions": [
    {
      "hash": "0xc7a2fa82b5c0dc25074b5467fee50d420abcb45c4b9ee7a5ea316d2de7c0a2f2",
      "transactionType": "CALL",
      "contractName": null,
      "contractAddress": "0xe03a1074c86cfedd5c142c4f04f1a1536e203543",
      "function": "initialize((address,address,uint24,int24,address),uint160)",
      "arguments": [
        "(0x21693218Ee7e2C750A6d8DC156A3de2034F8f846, 0x2871c4382f693A77857f75B5db87467067B52882, 0, 60, 0xCA2A914BA5fdFaaD2989CC21A93F172701078080)",
        "79228162514264337593543950336"
      ],
      "transaction": {
        "from": "0xea78d8595ab0127c283297af373a8f5ce7288bb0",
        "to": "0xe03a1074c86cfedd5c142c4f04f1a1536e203543",
        "gas": "0x12793",
        "value": "0x0",
        "input": "0x6276cbbe00000000000000000000000021693218ee7e2c750a6d8dc156a3de2034f8f8460000000000000000000000002871c4382f693a77857f75b5db87467067b528820000000000000000000000000000000000000000000000000000000000000000000000000000000000000000000000000000000000000000000000000000003c000000000000000000000000ca2a914ba5fdfaad2989cc21a93f1727010780800000000000000000000000000000000000000001000000000000000000000000",
        "nonce": "0x108",
        "chainId": "0xaa36a7"
      },
      "additionalContracts": [],
      "isFixedGasLimit": false
    }
  ],
  "receipts": [
    {
      "status": "0x1",
      "cumulativeGasUsed": "0x6c1677",
      "logs": [
        {
          "address": "0xe03a1074c86cfedd5c142c4f04f1a1536e203543",
          "topics": [
            "0xdd466e674ea557f56295e2d0218a125ea4b4f0f6f3307b95f85e6110838d6438",
            "0xd89a5aaf0a5a748eb196c7ed3b417f398b75775da67d209c6b32d7a502981908",
            "0x00000000000000000000000021693218ee7e2c750a6d8dc156a3de2034f8f846",
            "0x0000000000000000000000002871c4382f693a77857f75b5db87467067b52882"
          ],
          "data": "0x0000000000000000000000000000000000000000000000000000000000000000000000000000000000000000000000000000000000000000000000000000003c000000000000000000000000ca2a914ba5fdfaad2989cc21a93f17270107808000000000000000000000000000000000000000010000000000000000000000000000000000000000000000000000000000000000000000000000000000000000",
          "blockHash": "0xdb6d7b61f746b1c47974eae89495adc3fea0b6c5d86256709ee9686f82088de2",
          "blockNumber": "0x896258",
          "blockTimestamp": "0x68a1bca8",
          "transactionHash": "0xc7a2fa82b5c0dc25074b5467fee50d420abcb45c4b9ee7a5ea316d2de7c0a2f2",
          "transactionIndex": "0x4a",
          "logIndex": "0x98",
          "removed": false
        }
      ],
      "logsBloom": "0x00000000000800000000000000000000000000000000000000000000000000000000000000000000000000000000000000000100000000000000000000000000000000000000000000000000000000000000000000000000000000000000000000000000000000000000000000000000000000000200100000000000000000000000001000000008000020000000080000000001000000000000000000200000050000000000800000000000000000000000000000000000000000000000000000020000000000000000000000000000000000000000000000000000000000001000000000000000000000000000000000000000000000000000000000000000",
      "type": "0x0",
      "transactionHash": "0xc7a2fa82b5c0dc25074b5467fee50d420abcb45c4b9ee7a5ea316d2de7c0a2f2",
      "transactionIndex": "0x4a",
      "blockHash": "0xdb6d7b61f746b1c47974eae89495adc3fea0b6c5d86256709ee9686f82088de2",
      "blockNumber": "0x896258",
      "gasUsed": "0xca1b",
      "effectiveGasPrice": "0x6824a44",
      "from": "0xea78d8595ab0127c283297af373a8f5ce7288bb0",
      "to": "0xe03a1074c86cfedd5c142c4f04f1a1536e203543",
      "contractAddress": null
    }
  ],
  "libraries": [],
  "pending": [],
  "returns": {},
  "timestamp": 1755430056,
  "chain": 11155111,
  "commit": "ac413d8"
}