{
  "transactions": [
    {
      "hash": "0xce9149310edbfb2f54f3b6ad021bb56adaf06b79e332069be1d5a4463ec1e3d2",
      "transactionType": "CALL",
      "contractName": null,
      "contractAddress": "0xe03a1074c86cfedd5c142c4f04f1a1536e203543",
      "function": "initialize((address,address,uint24,int24,address),uint160)",
      "arguments": [
        "(0x083dC0B99F583B5F6eD9c86612B3CcB8e8845b4A, 0x6550c8d40f06c8A5B003A0622538980Fc4AF7492, 0, 60, 0x0000000000000000000000000000000000000000)",
        "79228162514264337593543950336"
      ],
      "transaction": {
        "from": "0xea78d8595ab0127c283297af373a8f5ce7288bb0",
        "to": "0xe03a1074c86cfedd5c142c4f04f1a1536e203543",
        "gas": "0x115e9",
        "value": "0x0",
        "input": "0x6276cbbe000000000000000000000000083dc0b99f583b5f6ed9c86612b3ccb8e8845b4a0000000000000000000000006550c8d40f06c8a5b003a0622538980fc4af74920000000000000000000000000000000000000000000000000000000000000000000000000000000000000000000000000000000000000000000000000000003c00000000000000000000000000000000000000000000000000000000000000000000000000000000000000000000000000000001000000000000000000000000",
        "nonce": "0x114",
        "chainId": "0xaa36a7"
      },
      "additionalContracts": [],
      "isFixedGasLimit": false
    }
  ],
  "receipts": [
    {
      "status": "0x1",
      "cumulativeGasUsed": "0xfe5d82",
      "logs": [
        {
          "address": "0xe03a1074c86cfedd5c142c4f04f1a1536e203543",
          "topics": [
            "0xdd466e674ea557f56295e2d0218a125ea4b4f0f6f3307b95f85e6110838d6438",
            "0x00b47788b335679e33ba56b8e296e40795386b3cc9febc4efee98867929caf89",
            "0x000000000000000000000000083dc0b99f583b5f6ed9c86612b3ccb8e8845b4a",
            "0x0000000000000000000000006550c8d40f06c8a5b003a0622538980fc4af7492"
          ],
          "data": "0x0000000000000000000000000000000000000000000000000000000000000000000000000000000000000000000000000000000000000000000000000000003c000000000000000000000000000000000000000000000000000000000000000000000000000000000000000000000000000000010000000000000000000000000000000000000000000000000000000000000000000000000000000000000000",
          "blockHash": "0x223da225a2b46871afad7a2129296ccdde8576133f29e2b4bf526dca8209d019",
          "blockNumber": "0x8963c7",
          "blockTimestamp": "0x68a1cdf4",
          "transactionHash": "0xce9149310edbfb2f54f3b6ad021bb56adaf06b79e332069be1d5a4463ec1e3d2",
          "transactionIndex": "0x81",
          "logIndex": "0xf6",
          "removed": false
        }
      ],
      "logsBloom": "0x00000000000000000000000000008000000000000000000000000000000000004000000000000000000000000000000000000504000000000000000000000000000000000000000000000000000000000000000000000000000000000000000000000000000000000000000000000000000000000000120000000000000000000000000000000008000000004000000000000001000000000000000000200000000000400000000000000000000000000000000000000000000000000000000000000000000200000000000000000000000000000000000000002000000000001000000000000000000000000000000000000000000000000000000000000000",
      "type": "0x0",
      "transactionHash": "0xce9149310edbfb2f54f3b6ad021bb56adaf06b79e332069be1d5a4463ec1e3d2",
      "transactionIndex": "0x81",
      "blockHash": "0x223da225a2b46871afad7a2129296ccdde8576133f29e2b4bf526dca8209d019",
      "blockNumber": "0x8963c7",
      "gasUsed": "0xc934",
      "effectiveGasPrice": "0x6ca3066",
      "from": "0xea78d8595ab0127c283297af373a8f5ce7288bb0",
      "to": "0xe03a1074c86cfedd5c142c4f04f1a1536e203543",
      "contractAddress": null
    }
  ],
  "libraries": [],
  "pending": [],
  "returns": {},
  "timestamp": 1755434485,
  "chain": 11155111,
  "commit": "20d8dcd"
}